{
  "_format": "hh-sol-artifact-1",
  "contractName": "MyEpicNFT",
  "sourceName": "contracts/MyEpicNFT.sol",
  "abi": [
    {
      "inputs": [],
      "stateMutability": "nonpayable",
      "type": "constructor"
    },
    {
      "anonymous": false,
      "inputs": [
        {
          "indexed": true,
          "internalType": "address",
          "name": "owner",
          "type": "address"
        },
        {
          "indexed": true,
          "internalType": "address",
          "name": "approved",
          "type": "address"
        },
        {
          "indexed": true,
          "internalType": "uint256",
          "name": "tokenId",
          "type": "uint256"
        }
      ],
      "name": "Approval",
      "type": "event"
    },
    {
      "anonymous": false,
      "inputs": [
        {
          "indexed": true,
          "internalType": "address",
          "name": "owner",
          "type": "address"
        },
        {
          "indexed": true,
          "internalType": "address",
          "name": "operator",
          "type": "address"
        },
        {
          "indexed": false,
          "internalType": "bool",
          "name": "approved",
          "type": "bool"
        }
      ],
      "name": "ApprovalForAll",
      "type": "event"
    },
    {
      "anonymous": false,
      "inputs": [
        {
          "indexed": false,
          "internalType": "address",
          "name": "sender",
          "type": "address"
        },
        {
          "indexed": false,
          "internalType": "uint256",
          "name": "tokenId",
          "type": "uint256"
        }
      ],
      "name": "NewEpicNFTMinted",
      "type": "event"
    },
    {
      "anonymous": false,
      "inputs": [
        {
          "indexed": true,
          "internalType": "address",
          "name": "from",
          "type": "address"
        },
        {
          "indexed": true,
          "internalType": "address",
          "name": "to",
          "type": "address"
        },
        {
          "indexed": true,
          "internalType": "uint256",
          "name": "tokenId",
          "type": "uint256"
        }
      ],
      "name": "Transfer",
      "type": "event"
    },
    {
      "inputs": [
        {
          "internalType": "address",
          "name": "to",
          "type": "address"
        },
        {
          "internalType": "uint256",
          "name": "tokenId",
          "type": "uint256"
        }
      ],
      "name": "approve",
      "outputs": [],
      "stateMutability": "nonpayable",
      "type": "function"
    },
    {
      "inputs": [
        {
          "internalType": "address",
          "name": "owner",
          "type": "address"
        }
      ],
      "name": "balanceOf",
      "outputs": [
        {
          "internalType": "uint256",
          "name": "",
          "type": "uint256"
        }
      ],
      "stateMutability": "view",
      "type": "function"
    },
    {
      "inputs": [
        {
          "internalType": "uint256",
          "name": "tokenId",
          "type": "uint256"
        }
      ],
      "name": "getApproved",
      "outputs": [
        {
          "internalType": "address",
          "name": "",
          "type": "address"
        }
      ],
      "stateMutability": "view",
      "type": "function"
    },
    {
      "inputs": [],
      "name": "getTotalNFTsMintedSoFar",
      "outputs": [
        {
          "internalType": "uint256",
          "name": "",
          "type": "uint256"
        }
      ],
      "stateMutability": "view",
      "type": "function"
    },
    {
      "inputs": [
        {
          "internalType": "address",
          "name": "owner",
          "type": "address"
        },
        {
          "internalType": "address",
          "name": "operator",
          "type": "address"
        }
      ],
      "name": "isApprovedForAll",
      "outputs": [
        {
          "internalType": "bool",
          "name": "",
          "type": "bool"
        }
      ],
      "stateMutability": "view",
      "type": "function"
    },
    {
      "inputs": [],
      "name": "makeAnEpicNFT",
      "outputs": [],
      "stateMutability": "nonpayable",
      "type": "function"
    },
    {
      "inputs": [],
      "name": "name",
      "outputs": [
        {
          "internalType": "string",
          "name": "",
          "type": "string"
        }
      ],
      "stateMutability": "view",
      "type": "function"
    },
    {
      "inputs": [
        {
          "internalType": "uint256",
          "name": "tokenId",
          "type": "uint256"
        }
      ],
      "name": "ownerOf",
      "outputs": [
        {
          "internalType": "address",
          "name": "",
          "type": "address"
        }
      ],
      "stateMutability": "view",
      "type": "function"
    },
    {
      "inputs": [
        {
          "internalType": "uint256",
          "name": "tokenId",
          "type": "uint256"
        }
      ],
      "name": "pickRandomFirstWord",
      "outputs": [
        {
          "internalType": "string",
          "name": "",
          "type": "string"
        }
      ],
      "stateMutability": "view",
      "type": "function"
    },
    {
      "inputs": [
        {
          "internalType": "uint256",
          "name": "tokenId",
          "type": "uint256"
        }
      ],
      "name": "pickRandomSecondWord",
      "outputs": [
        {
          "internalType": "string",
          "name": "",
          "type": "string"
        }
      ],
      "stateMutability": "view",
      "type": "function"
    },
    {
      "inputs": [
        {
          "internalType": "uint256",
          "name": "tokenId",
          "type": "uint256"
        }
      ],
      "name": "pickRandomThirdWord",
      "outputs": [
        {
          "internalType": "string",
          "name": "",
          "type": "string"
        }
      ],
      "stateMutability": "view",
      "type": "function"
    },
    {
      "inputs": [
        {
          "internalType": "address",
          "name": "from",
          "type": "address"
        },
        {
          "internalType": "address",
          "name": "to",
          "type": "address"
        },
        {
          "internalType": "uint256",
          "name": "tokenId",
          "type": "uint256"
        }
      ],
      "name": "safeTransferFrom",
      "outputs": [],
      "stateMutability": "nonpayable",
      "type": "function"
    },
    {
      "inputs": [
        {
          "internalType": "address",
          "name": "from",
          "type": "address"
        },
        {
          "internalType": "address",
          "name": "to",
          "type": "address"
        },
        {
          "internalType": "uint256",
          "name": "tokenId",
          "type": "uint256"
        },
        {
          "internalType": "bytes",
          "name": "_data",
          "type": "bytes"
        }
      ],
      "name": "safeTransferFrom",
      "outputs": [],
      "stateMutability": "nonpayable",
      "type": "function"
    },
    {
      "inputs": [
        {
          "internalType": "address",
          "name": "operator",
          "type": "address"
        },
        {
          "internalType": "bool",
          "name": "approved",
          "type": "bool"
        }
      ],
      "name": "setApprovalForAll",
      "outputs": [],
      "stateMutability": "nonpayable",
      "type": "function"
    },
    {
      "inputs": [
        {
          "internalType": "bytes4",
          "name": "interfaceId",
          "type": "bytes4"
        }
      ],
      "name": "supportsInterface",
      "outputs": [
        {
          "internalType": "bool",
          "name": "",
          "type": "bool"
        }
      ],
      "stateMutability": "view",
      "type": "function"
    },
    {
      "inputs": [],
      "name": "symbol",
      "outputs": [
        {
          "internalType": "string",
          "name": "",
          "type": "string"
        }
      ],
      "stateMutability": "view",
      "type": "function"
    },
    {
      "inputs": [
        {
          "internalType": "uint256",
          "name": "tokenId",
          "type": "uint256"
        }
      ],
      "name": "tokenURI",
      "outputs": [
        {
          "internalType": "string",
          "name": "",
          "type": "string"
        }
      ],
      "stateMutability": "view",
      "type": "function"
    },
    {
      "inputs": [
        {
          "internalType": "address",
          "name": "from",
          "type": "address"
        },
        {
          "internalType": "address",
          "name": "to",
          "type": "address"
        },
        {
          "internalType": "uint256",
          "name": "tokenId",
          "type": "uint256"
        }
      ],
      "name": "transferFrom",
      "outputs": [],
      "stateMutability": "nonpayable",
      "type": "function"
    }
  ],
  "bytecode": "0x608060405260405180610160016040528061012f815260200162004b6c61012f9139600890805190602001906200003892919062000cbf565b50604051806101e001604052806040518060400160405280600781526020017f436572736569200000000000000000000000000000000000000000000000000081525081526020016040518060400160405280600581526020017f417279612000000000000000000000000000000000000000000000000000000081525081526020016040518060400160405280600681526020017f53616e736120000000000000000000000000000000000000000000000000000081525081526020016040518060400160405280600981526020017f4461656e6572797320000000000000000000000000000000000000000000000081525081526020016040518060400160405280600b81526020017f4b68616c2044726f676f2000000000000000000000000000000000000000000081525081526020016040518060400160405280600581526020017f4272616e2000000000000000000000000000000000000000000000000000000081525081526020016040518060400160405280600481526020017f4a6f6e200000000000000000000000000000000000000000000000000000000081525081526020016040518060400160405280600681526020017f4a616d696520000000000000000000000000000000000000000000000000000081525081526020016040518060400160405280600881526020017f427269656e6e652000000000000000000000000000000000000000000000000081525081526020016040518060400160405280600781526020017f456464617264200000000000000000000000000000000000000000000000000081525081526020016040518060400160405280600881526020017f4a6f66666572792000000000000000000000000000000000000000000000000081525081526020016040518060400160405280600681526020017f5468656f6e20000000000000000000000000000000000000000000000000000081525081526020016040518060400160405280600981526020017f4d6172676165727920000000000000000000000000000000000000000000000081525081526020016040518060400160405280600781526020017f44616172696f200000000000000000000000000000000000000000000000000081525081526020016040518060400160405280600681526020017f486f646f72200000000000000000000000000000000000000000000000000000815250815250600990600f620003ca92919062000d50565b506040518061020001604052806040518060400160405280600681526020017f6b696c6c7320000000000000000000000000000000000000000000000000000081525081526020016040518060400160405280600881526020017f6d6172726965732000000000000000000000000000000000000000000000000081525081526020016040518060400160405280600781526020017f6b6973736564200000000000000000000000000000000000000000000000000081525081526020016040518060400160405280600781526020017f64756d706564200000000000000000000000000000000000000000000000000081525081526020016040518060400160405280600681526020017f77696e6b7320000000000000000000000000000000000000000000000000000081525081526020016040518060400160405280600581526020017f656174732000000000000000000000000000000000000000000000000000000081525081526020016040518060400160405280600681526020017f6c6966747320000000000000000000000000000000000000000000000000000081525081526020016040518060400160405280600781526020017f6472696e6b73200000000000000000000000000000000000000000000000000081525081526020016040518060400160405280600681526020017f6c6f76657320000000000000000000000000000000000000000000000000000081525081526020016040518060400160405280600981526020017f706f69736f6e656420000000000000000000000000000000000000000000000081525081526020016040518060400160405280600681526020017f6c696b657320000000000000000000000000000000000000000000000000000081525081526020016040518060400160405280600781526020017f687567676564200000000000000000000000000000000000000000000000000081525081526020016040518060400160405280600881526020017f736d61736865642000000000000000000000000000000000000000000000000081525081526020016040518060400160405280600481526020017f444d73200000000000000000000000000000000000000000000000000000000081525081526020016040518060400160405280600681526020017f626974657320000000000000000000000000000000000000000000000000000081525081526020016040518060400160405280600981526020017f70726f706f736573200000000000000000000000000000000000000000000000815250815250600a9060106200079792919062000db7565b50604051806101c001604052806040518060400160405280600c81526020017f5065746572205061726b6572000000000000000000000000000000000000000081525081526020016040518060400160405280601081526020017f4e61746173686120526f6d616e6f66660000000000000000000000000000000081525081526020016040518060400160405280600e81526020017f57616e6461204d6178696d6f666600000000000000000000000000000000000081525081526020016040518060400160405280600481526020017f48756c6b0000000000000000000000000000000000000000000000000000000081525081526020016040518060400160405280600781526020017f4861776b6579650000000000000000000000000000000000000000000000000081525081526020016040518060400160405280600681526020017f5468616e6f73000000000000000000000000000000000000000000000000000081525081526020016040518060400160405280600e81526020017f4361707461696e204d617276656c00000000000000000000000000000000000081525081526020016040518060400160405280600981526020017f4e69636b2046757279000000000000000000000000000000000000000000000081525081526020016040518060400160405280600681526020017f47616d6f7261000000000000000000000000000000000000000000000000000081525081526020016040518060400160405280600581526020017f47726f6f7400000000000000000000000000000000000000000000000000000081525081526020016040518060400160405280600481526020017f4c6f6b690000000000000000000000000000000000000000000000000000000081525081526020016040518060400160405280600a81526020017f546f6e7920537461726b0000000000000000000000000000000000000000000081525081526020016040518060400160405280600c81526020017f537465766520526f67657273000000000000000000000000000000000000000081525081526020016040518060400160405280600e81526020017f57696e74657220536f6c64696572000000000000000000000000000000000000815250815250600b90600e62000aee92919062000e1e565b50601e600c5534801562000b0157600080fd5b506040518060400160405280600981526020017f5371756172654e465400000000000000000000000000000000000000000000008152506040518060400160405280600681526020017f5351554152450000000000000000000000000000000000000000000000000000815250816000908051906020019062000b8692919062000cbf565b50806001908051906020019062000b9f92919062000cbf565b50505062000bed6040518060400160405280601e81526020017f54686973206973206d79204e465420636f6e74726163742e20576f616821000081525062000bf360201b6200132c1760201c565b6200103f565b62000c938160405160240162000c0a919062000f53565b6040516020818303038152906040527f41304fac000000000000000000000000000000000000000000000000000000007bffffffffffffffffffffffffffffffffffffffffffffffffffffffff19166020820180517bffffffffffffffffffffffffffffffffffffffffffffffffffffffff838183161783525050505062000c9660201b60201c565b50565b60008151905060006a636f6e736f6c652e6c6f679050602083016000808483855afa5050505050565b82805462000ccd9062000fc9565b90600052602060002090601f01602090048101928262000cf1576000855562000d3d565b82601f1062000d0c57805160ff191683800117855562000d3d565b8280016001018555821562000d3d579182015b8281111562000d3c57825182559160200191906001019062000d1f565b5b50905062000d4c919062000e85565b5090565b82805482825590600052602060002090810192821562000da4579160200282015b8281111562000da357825182908051906020019062000d9292919062000cbf565b509160200191906001019062000d71565b5b50905062000db3919062000ea4565b5090565b82805482825590600052602060002090810192821562000e0b579160200282015b8281111562000e0a57825182908051906020019062000df992919062000cbf565b509160200191906001019062000dd8565b5b50905062000e1a919062000ea4565b5090565b82805482825590600052602060002090810192821562000e72579160200282015b8281111562000e7157825182908051906020019062000e6092919062000cbf565b509160200191906001019062000e3f565b5b50905062000e81919062000ea4565b5090565b5b8082111562000ea057600081600090555060010162000e86565b5090565b5b8082111562000ec8576000818162000ebe919062000ecc565b5060010162000ea5565b5090565b50805462000eda9062000fc9565b6000825580601f1062000eee575062000f0f565b601f01602090049060005260206000209081019062000f0e919062000e85565b5b50565b600062000f1f8262000f77565b62000f2b818562000f82565b935062000f3d81856020860162000f93565b62000f48816200102e565b840191505092915050565b6000602082019050818103600083015262000f6f818462000f12565b905092915050565b600081519050919050565b600082825260208201905092915050565b60005b8381101562000fb357808201518184015260208101905062000f96565b8381111562000fc3576000848401525b50505050565b6000600282049050600182168062000fe257607f821691505b6020821081141562000ff95762000ff862000fff565b5b50919050565b7f4e487b7100000000000000000000000000000000000000000000000000000000600052602260045260246000fd5b6000601f19601f8301169050919050565b613b1d806200104f6000396000f3fe608060405234801561001057600080fd5b50600436106101165760003560e01c806370a08231116100a2578063b88d4fde11610071578063b88d4fde14610305578063c575757a14610321578063c87b56dd14610351578063de9d132f14610381578063e985e9c51461038b57610116565b806370a082311461026b57806395d89b411461029b578063a22cb465146102b9578063b187301f146102d557610116565b8063095ea7b3116100e9578063095ea7b3146101b757806323b872dd146101d35780632de38d68146101ef57806342842e0e1461021f5780636352211e1461023b57610116565b806301ffc9a71461011b578063060475901461014b57806306fdde0314610169578063081812fc14610187575b600080fd5b610135600480360381019061013091906125bf565b6103bb565b6040516101429190612cec565b60405180910390f35b61015361049d565b6040516101609190612f87565b60405180910390f35b6101716104ae565b60405161017e9190612d07565b60405180910390f35b6101a1600480360381019061019c9190612611565b610540565b6040516101ae9190612c5c565b60405180910390f35b6101d160048036038101906101cc9190612583565b6105c5565b005b6101ed60048036038101906101e8919061247d565b6106dd565b005b61020960048036038101906102049190612611565b61073d565b6040516102169190612d07565b60405180910390f35b6102396004803603810190610234919061247d565b61085b565b005b61025560048036038101906102509190612611565b61087b565b6040516102629190612c5c565b60405180910390f35b61028560048036038101906102809190612418565b61092d565b6040516102929190612f87565b60405180910390f35b6102a36109e5565b6040516102b09190612d07565b60405180910390f35b6102d360048036038101906102ce9190612547565b610a77565b005b6102ef60048036038101906102ea9190612611565b610bf8565b6040516102fc9190612d07565b60405180910390f35b61031f600480360381019061031a91906124cc565b610d16565b005b61033b60048036038101906103369190612611565b610d78565b6040516103489190612d07565b60405180910390f35b61036b60048036038101906103669190612611565b610e96565b6040516103789190612d07565b60405180910390f35b610389610fe8565b005b6103a560048036038101906103a09190612441565b611298565b6040516103b29190612cec565b60405180910390f35b60007f80ac58cd000000000000000000000000000000000000000000000000000000007bffffffffffffffffffffffffffffffffffffffffffffffffffffffff1916827bffffffffffffffffffffffffffffffffffffffffffffffffffffffff1916148061048657507f5b5e139f000000000000000000000000000000000000000000000000000000007bffffffffffffffffffffffffffffffffffffffffffffffffffffffff1916827bffffffffffffffffffffffffffffffffffffffffffffffffffffffff1916145b806104965750610495826113c5565b5b9050919050565b60006104a9600761142f565b905090565b6060600080546104bd9061321b565b80601f01602080910402602001604051908101604052809291908181526020018280546104e99061321b565b80156105365780601f1061050b57610100808354040283529160200191610536565b820191906000526020600020905b81548152906001019060200180831161051957829003601f168201915b5050505050905090565b600061054b8261143d565b61058a576040517f08c379a000000000000000000000000000000000000000000000000000000000815260040161058190612ee7565b60405180910390fd5b6004600083815260200190815260200160002060009054906101000a900473ffffffffffffffffffffffffffffffffffffffff169050919050565b60006105d08261087b565b90508073ffffffffffffffffffffffffffffffffffffffff168373ffffffffffffffffffffffffffffffffffffffff161415610641576040517f08c379a000000000000000000000000000000000000000000000000000000000815260040161063890612f47565b60405180910390fd5b8073ffffffffffffffffffffffffffffffffffffffff166106606114a9565b73ffffffffffffffffffffffffffffffffffffffff16148061068f575061068e816106896114a9565b611298565b5b6106ce576040517f08c379a00000000000000000000000000000000000000000000000000000000081526004016106c590612e07565b60405180910390fd5b6106d883836114b1565b505050565b6106ee6106e86114a9565b8261156a565b61072d576040517f08c379a000000000000000000000000000000000000000000000000000000000815260040161072490612f67565b60405180910390fd5b610738838383611648565b505050565b6060600061077161074d846118a4565b60405160200161075d9190612c18565b604051602081830303815290604052611a51565b90506009805490508161078491906132c7565b9050600981815481106107c0577f4e487b7100000000000000000000000000000000000000000000000000000000600052603260045260246000fd5b9060005260206000200180546107d59061321b565b80601f01602080910402602001604051908101604052809291908181526020018280546108019061321b565b801561084e5780601f106108235761010080835404028352916020019161084e565b820191906000526020600020905b81548152906001019060200180831161083157829003601f168201915b5050505050915050919050565b61087683838360405180602001604052806000815250610d16565b505050565b6000806002600084815260200190815260200160002060009054906101000a900473ffffffffffffffffffffffffffffffffffffffff169050600073ffffffffffffffffffffffffffffffffffffffff168173ffffffffffffffffffffffffffffffffffffffff161415610924576040517f08c379a000000000000000000000000000000000000000000000000000000000815260040161091b90612e47565b60405180910390fd5b80915050919050565b60008073ffffffffffffffffffffffffffffffffffffffff168273ffffffffffffffffffffffffffffffffffffffff16141561099e576040517f08c379a000000000000000000000000000000000000000000000000000000000815260040161099590612e27565b60405180910390fd5b600360008373ffffffffffffffffffffffffffffffffffffffff1673ffffffffffffffffffffffffffffffffffffffff168152602001908152602001600020549050919050565b6060600180546109f49061321b565b80601f0160208091040260200160405190810160405280929190818152602001828054610a209061321b565b8015610a6d5780601f10610a4257610100808354040283529160200191610a6d565b820191906000526020600020905b815481529060010190602001808311610a5057829003601f168201915b5050505050905090565b610a7f6114a9565b73ffffffffffffffffffffffffffffffffffffffff168273ffffffffffffffffffffffffffffffffffffffff161415610aed576040517f08c379a0000000000000000000000000000000000000000000000000000000008152600401610ae490612dc7565b60405180910390fd5b8060056000610afa6114a9565b73ffffffffffffffffffffffffffffffffffffffff1673ffffffffffffffffffffffffffffffffffffffff16815260200190815260200160002060008473ffffffffffffffffffffffffffffffffffffffff1673ffffffffffffffffffffffffffffffffffffffff16815260200190815260200160002060006101000a81548160ff0219169083151502179055508173ffffffffffffffffffffffffffffffffffffffff16610ba76114a9565b73ffffffffffffffffffffffffffffffffffffffff167f17307eab39ab6107e8899845ad3d59bd9653f200f220920489ca2b5937696c3183604051610bec9190612cec565b60405180910390a35050565b60606000610c2c610c08846118a4565b604051602001610c189190612bb1565b604051602081830303815290604052611a51565b9050600a8054905081610c3f91906132c7565b9050600a8181548110610c7b577f4e487b7100000000000000000000000000000000000000000000000000000000600052603260045260246000fd5b906000526020600020018054610c909061321b565b80601f0160208091040260200160405190810160405280929190818152602001828054610cbc9061321b565b8015610d095780601f10610cde57610100808354040283529160200191610d09565b820191906000526020600020905b815481529060010190602001808311610cec57829003601f168201915b5050505050915050919050565b610d27610d216114a9565b8361156a565b610d66576040517f08c379a0000000000000000000000000000000000000000000000000000000008152600401610d5d90612f67565b60405180910390fd5b610d7284848484611a84565b50505050565b60606000610dac610d88846118a4565b604051602001610d989190612b8f565b604051602081830303815290604052611a51565b9050600b8054905081610dbf91906132c7565b9050600b8181548110610dfb577f4e487b7100000000000000000000000000000000000000000000000000000000600052603260045260246000fd5b906000526020600020018054610e109061321b565b80601f0160208091040260200160405190810160405280929190818152602001828054610e3c9061321b565b8015610e895780601f10610e5e57610100808354040283529160200191610e89565b820191906000526020600020905b815481529060010190602001808311610e6c57829003601f168201915b5050505050915050919050565b6060610ea18261143d565b610ee0576040517f08c379a0000000000000000000000000000000000000000000000000000000008152600401610ed790612ec7565b60405180910390fd5b6000600660008481526020019081526020016000208054610f009061321b565b80601f0160208091040260200160405190810160405280929190818152602001828054610f2c9061321b565b8015610f795780601f10610f4e57610100808354040283529160200191610f79565b820191906000526020600020905b815481529060010190602001808311610f5c57829003601f168201915b505050505090506000610f8a611ae0565b9050600081511415610fa0578192505050610fe3565b600082511115610fd5578082604051602001610fbd929190612b0b565b60405160208183030381529060405292505050610fe3565b610fde84611af7565b925050505b919050565b6000610ff4600761142f565b9050600c54811061103a576040517f08c379a000000000000000000000000000000000000000000000000000000000815260040161103190612e87565b60405180910390fd5b60006110458261073d565b9050600061105283610bf8565b9050600061105f84610d78565b9050600083838360405160200161107893929190612b2f565b6040516020818303038152906040529050600060088260405160200161109f929190612b60565b60405160208183030381529060405290506110ee6040518060400160405280601581526020017f0a2d2d2d2d2d2d2d2d2d2d2d2d2d2d2d2d2d2d2d2d000000000000000000000081525061132c565b6110f78161132c565b6111356040518060400160405280601581526020017f2d2d2d2d2d2d2d2d2d2d2d2d2d2d2d2d2d2d2d2d0a000000000000000000000081525061132c565b60006111698361114484611b9e565b604051602001611155929190612bd3565b604051602081830303815290604052611b9e565b905060008160405160200161117e9190612c3a565b60405160208183030381529060405290506111cd6040518060400160405280601581526020017f0a2d2d2d2d2d2d2d2d2d2d2d2d2d2d2d2d2d2d2d2d000000000000000000000081525061132c565b6111d68161132c565b6112146040518060400160405280601581526020017f2d2d2d2d2d2d2d2d2d2d2d2d2d2d2d2d2d2d2d2d0a000000000000000000000081525061132c565b61121e3389611d5c565b6112288882611d7a565b61124b604051806060016040528060258152602001613a83602591398933611dee565b6112556007611e8d565b7febb98688741ffa4c7589bf325de30cf7becb63de567842e1ccdb6cb949fdc82c3389604051611286929190612cc3565b60405180910390a15050505050505050565b6000600560008473ffffffffffffffffffffffffffffffffffffffff1673ffffffffffffffffffffffffffffffffffffffff16815260200190815260200160002060008373ffffffffffffffffffffffffffffffffffffffff1673ffffffffffffffffffffffffffffffffffffffff16815260200190815260200160002060009054906101000a900460ff16905092915050565b6113c2816040516024016113409190612d07565b6040516020818303038152906040527f41304fac000000000000000000000000000000000000000000000000000000007bffffffffffffffffffffffffffffffffffffffffffffffffffffffff19166020820180517bffffffffffffffffffffffffffffffffffffffffffffffffffffffff8381831617835250505050611ea3565b50565b60007f01ffc9a7000000000000000000000000000000000000000000000000000000007bffffffffffffffffffffffffffffffffffffffffffffffffffffffff1916827bffffffffffffffffffffffffffffffffffffffffffffffffffffffff1916149050919050565b600081600001549050919050565b60008073ffffffffffffffffffffffffffffffffffffffff166002600084815260200190815260200160002060009054906101000a900473ffffffffffffffffffffffffffffffffffffffff1673ffffffffffffffffffffffffffffffffffffffff1614159050919050565b600033905090565b816004600083815260200190815260200160002060006101000a81548173ffffffffffffffffffffffffffffffffffffffff021916908373ffffffffffffffffffffffffffffffffffffffff160217905550808273ffffffffffffffffffffffffffffffffffffffff166115248361087b565b73ffffffffffffffffffffffffffffffffffffffff167f8c5be1e5ebec7d5bd14f71427d1e84f3dd0314c0f7b2291e5b200ac8c7c3b92560405160405180910390a45050565b60006115758261143d565b6115b4576040517f08c379a00000000000000000000000000000000000000000000000000000000081526004016115ab90612de7565b60405180910390fd5b60006115bf8361087b565b90508073ffffffffffffffffffffffffffffffffffffffff168473ffffffffffffffffffffffffffffffffffffffff16148061162e57508373ffffffffffffffffffffffffffffffffffffffff1661161684610540565b73ffffffffffffffffffffffffffffffffffffffff16145b8061163f575061163e8185611298565b5b91505092915050565b8273ffffffffffffffffffffffffffffffffffffffff166116688261087b565b73ffffffffffffffffffffffffffffffffffffffff16146116be576040517f08c379a00000000000000000000000000000000000000000000000000000000081526004016116b590612f07565b60405180910390fd5b600073ffffffffffffffffffffffffffffffffffffffff168273ffffffffffffffffffffffffffffffffffffffff16141561172e576040517f08c379a000000000000000000000000000000000000000000000000000000000815260040161172590612da7565b60405180910390fd5b611739838383611ecc565b6117446000826114b1565b6001600360008573ffffffffffffffffffffffffffffffffffffffff1673ffffffffffffffffffffffffffffffffffffffff16815260200190815260200160002060008282546117949190613131565b925050819055506001600360008473ffffffffffffffffffffffffffffffffffffffff1673ffffffffffffffffffffffffffffffffffffffff16815260200190815260200160002060008282546117eb9190613050565b92505081905550816002600083815260200190815260200160002060006101000a81548173ffffffffffffffffffffffffffffffffffffffff021916908373ffffffffffffffffffffffffffffffffffffffff160217905550808273ffffffffffffffffffffffffffffffffffffffff168473ffffffffffffffffffffffffffffffffffffffff167fddf252ad1be2c89b69c2b068fc378daa952ba7f163c4a11628f55a4df523b3ef60405160405180910390a4505050565b606060008214156118ec576040518060400160405280600181526020017f30000000000000000000000000000000000000000000000000000000000000008152509050611a4c565b600082905060005b6000821461191e5780806119079061327e565b915050600a8261191791906130a6565b91506118f4565b60008167ffffffffffffffff811115611960577f4e487b7100000000000000000000000000000000000000000000000000000000600052604160045260246000fd5b6040519080825280601f01601f1916602001820160405280156119925781602001600182028036833780820191505090505b5090505b60008514611a45576001826119ab9190613131565b9150600a856119ba91906132c7565b60306119c69190613050565b60f81b818381518110611a02577f4e487b7100000000000000000000000000000000000000000000000000000000600052603260045260246000fd5b60200101907effffffffffffffffffffffffffffffffffffffffffffffffffffffffffffff1916908160001a905350600a85611a3e91906130a6565b9450611996565b8093505050505b919050565b600081604051602001611a649190612af4565b6040516020818303038152906040528051906020012060001c9050919050565b611a8f848484611648565b611a9b84848484611ed1565b611ada576040517f08c379a0000000000000000000000000000000000000000000000000000000008152600401611ad190612d67565b60405180910390fd5b50505050565b606060405180602001604052806000815250905090565b6060611b028261143d565b611b41576040517f08c379a0000000000000000000000000000000000000000000000000000000008152600401611b3890612f27565b60405180910390fd5b6000611b4b611ae0565b90506000815111611b6b5760405180602001604052806000815250611b96565b80611b75846118a4565b604051602001611b86929190612b0b565b6040516020818303038152906040525b915050919050565b60606000825190506000811415611bc75760405180602001604052806000815250915050611d57565b60006003600283611bd89190613050565b611be291906130a6565b6004611bee91906130d7565b90506000602082611bff9190613050565b67ffffffffffffffff811115611c3e577f4e487b7100000000000000000000000000000000000000000000000000000000600052604160045260246000fd5b6040519080825280601f01601f191660200182016040528015611c705781602001600182028036833780820191505090505b5090506000604051806060016040528060408152602001613aa8604091399050600181016020830160005b86811015611d145760038101905062ffffff818a015116603f8160121c168401518060081b905060ff603f83600c1c1686015116810190508060081b905060ff603f8360061c1686015116810190508060081b905060ff603f831686015116810190508060e01b90508084526004840193505050611c9b565b506003860660018114611d2e5760028114611d3e57611d49565b613d3d60f01b6002830352611d49565b603d60f81b60018303525b508484525050819450505050505b919050565b611d76828260405180602001604052806000815250612068565b5050565b611d838261143d565b611dc2576040517f08c379a0000000000000000000000000000000000000000000000000000000008152600401611db990612e67565b60405180910390fd5b80600660008481526020019081526020016000209080519060200190611de99291906122a4565b505050565b611e88838383604051602401611e0693929190612d29565b6040516020818303038152906040527fe3849f79000000000000000000000000000000000000000000000000000000007bffffffffffffffffffffffffffffffffffffffffffffffffffffffff19166020820180517bffffffffffffffffffffffffffffffffffffffffffffffffffffffff8381831617835250505050611ea3565b505050565b6001816000016000828254019250508190555050565b60008151905060006a636f6e736f6c652e6c6f679050602083016000808483855afa5050505050565b505050565b6000611ef28473ffffffffffffffffffffffffffffffffffffffff166120c3565b1561205b578373ffffffffffffffffffffffffffffffffffffffff1663150b7a02611f1b6114a9565b8786866040518563ffffffff1660e01b8152600401611f3d9493929190612c77565b602060405180830381600087803b158015611f5757600080fd5b505af1925050508015611f8857506040513d601f19601f82011682018060405250810190611f8591906125e8565b60015b61200b573d8060008114611fb8576040519150601f19603f3d011682016040523d82523d6000602084013e611fbd565b606091505b50600081511415612003576040517f08c379a0000000000000000000000000000000000000000000000000000000008152600401611ffa90612d67565b60405180910390fd5b805181602001fd5b63150b7a0260e01b7bffffffffffffffffffffffffffffffffffffffffffffffffffffffff1916817bffffffffffffffffffffffffffffffffffffffffffffffffffffffff191614915050612060565b600190505b949350505050565b61207283836120d6565b61207f6000848484611ed1565b6120be576040517f08c379a00000000000000000000000000000000000000000000000000000000081526004016120b590612d67565b60405180910390fd5b505050565b600080823b905060008111915050919050565b600073ffffffffffffffffffffffffffffffffffffffff168273ffffffffffffffffffffffffffffffffffffffff161415612146576040517f08c379a000000000000000000000000000000000000000000000000000000000815260040161213d90612ea7565b60405180910390fd5b61214f8161143d565b1561218f576040517f08c379a000000000000000000000000000000000000000000000000000000000815260040161218690612d87565b60405180910390fd5b61219b60008383611ecc565b6001600360008473ffffffffffffffffffffffffffffffffffffffff1673ffffffffffffffffffffffffffffffffffffffff16815260200190815260200160002060008282546121eb9190613050565b92505081905550816002600083815260200190815260200160002060006101000a81548173ffffffffffffffffffffffffffffffffffffffff021916908373ffffffffffffffffffffffffffffffffffffffff160217905550808273ffffffffffffffffffffffffffffffffffffffff16600073ffffffffffffffffffffffffffffffffffffffff167fddf252ad1be2c89b69c2b068fc378daa952ba7f163c4a11628f55a4df523b3ef60405160405180910390a45050565b8280546122b09061321b565b90600052602060002090601f0160209004810192826122d25760008555612319565b82601f106122eb57805160ff1916838001178555612319565b82800160010185558215612319579182015b828111156123185782518255916020019190600101906122fd565b5b509050612326919061232a565b5090565b5b8082111561234357600081600090555060010161232b565b5090565b600061235a61235584612fc7565b612fa2565b90508281526020810184848401111561237257600080fd5b61237d8482856131d9565b509392505050565b60008135905061239481613a26565b92915050565b6000813590506123a981613a3d565b92915050565b6000813590506123be81613a54565b92915050565b6000815190506123d381613a54565b92915050565b600082601f8301126123ea57600080fd5b81356123fa848260208601612347565b91505092915050565b60008135905061241281613a6b565b92915050565b60006020828403121561242a57600080fd5b600061243884828501612385565b91505092915050565b6000806040838503121561245457600080fd5b600061246285828601612385565b925050602061247385828601612385565b9150509250929050565b60008060006060848603121561249257600080fd5b60006124a086828701612385565b93505060206124b186828701612385565b92505060406124c286828701612403565b9150509250925092565b600080600080608085870312156124e257600080fd5b60006124f087828801612385565b945050602061250187828801612385565b935050604061251287828801612403565b925050606085013567ffffffffffffffff81111561252f57600080fd5b61253b878288016123d9565b91505092959194509250565b6000806040838503121561255a57600080fd5b600061256885828601612385565b92505060206125798582860161239a565b9150509250929050565b6000806040838503121561259657600080fd5b60006125a485828601612385565b92505060206125b585828601612403565b9150509250929050565b6000602082840312156125d157600080fd5b60006125df848285016123af565b91505092915050565b6000602082840312156125fa57600080fd5b6000612608848285016123c4565b91505092915050565b60006020828403121561262357600080fd5b600061263184828501612403565b91505092915050565b61264381613165565b82525050565b61265281613177565b82525050565b60006126638261300d565b61266d8185613023565b935061267d8185602086016131e8565b612686816133b4565b840191505092915050565b600061269c82613018565b6126a68185613034565b93506126b68185602086016131e8565b6126bf816133b4565b840191505092915050565b60006126d582613018565b6126df8185613045565b93506126ef8185602086016131e8565b80840191505092915050565b600081546127088161321b565b6127128186613045565b9450600182166000811461272d576001811461273e57612771565b60ff19831686528186019350612771565b61274785612ff8565b60005b838110156127695781548189015260018201915060208101905061274a565b838801955050505b50505092915050565b6000612787603283613034565b9150612792826133c5565b604082019050919050565b60006127aa601c83613034565b91506127b582613414565b602082019050919050565b60006127cd600a83613045565b91506127d88261343d565b600a82019050919050565b60006127f0602483613034565b91506127fb82613466565b604082019050919050565b6000612813601983613034565b915061281e826134b5565b602082019050919050565b6000612836606383613045565b9150612841826134de565b606382019050919050565b6000612859600b83613045565b915061286482613579565b600b82019050919050565b600061287c602c83613034565b9150612887826135a2565b604082019050919050565b600061289f600d83613045565b91506128aa826135f1565b600d82019050919050565b60006128c2603883613034565b91506128cd8261361a565b604082019050919050565b60006128e5602a83613034565b91506128f082613669565b604082019050919050565b6000612908602983613034565b9150612913826136b8565b604082019050919050565b600061292b602e83613034565b915061293682613707565b604082019050919050565b600061294e601f83613034565b915061295982613756565b602082019050919050565b6000612971600283613045565b915061297c8261377f565b600282019050919050565b6000612994602083613034565b915061299f826137a8565b602082019050919050565b60006129b7603183613034565b91506129c2826137d1565b604082019050919050565b60006129da602c83613034565b91506129e582613820565b604082019050919050565b60006129fd602983613034565b9150612a088261386f565b604082019050919050565b6000612a20602f83613034565b9150612a2b826138be565b604082019050919050565b6000612a43600a83613045565b9150612a4e8261390d565b600a82019050919050565b6000612a66602183613034565b9150612a7182613936565b604082019050919050565b6000612a89600a83613045565b9150612a9482613985565b600a82019050919050565b6000612aac601d83613045565b9150612ab7826139ae565b601d82019050919050565b6000612acf603183613034565b9150612ada826139d7565b604082019050919050565b612aee816131cf565b82525050565b6000612b0082846126ca565b915081905092915050565b6000612b1782856126ca565b9150612b2382846126ca565b91508190509392505050565b6000612b3b82866126ca565b9150612b4782856126ca565b9150612b5382846126ca565b9150819050949350505050565b6000612b6c82856126fb565b9150612b7882846126ca565b9150612b8382612892565b91508190509392505050565b6000612b9a826127c0565b9150612ba682846126ca565b915081905092915050565b6000612bbc8261284c565b9150612bc882846126ca565b915081905092915050565b6000612bde82612a36565b9150612bea82856126ca565b9150612bf582612829565b9150612c0182846126ca565b9150612c0c82612964565b91508190509392505050565b6000612c2382612a7c565b9150612c2f82846126ca565b915081905092915050565b6000612c4582612a9f565b9150612c5182846126ca565b915081905092915050565b6000602082019050612c71600083018461263a565b92915050565b6000608082019050612c8c600083018761263a565b612c99602083018661263a565b612ca66040830185612ae5565b8181036060830152612cb88184612658565b905095945050505050565b6000604082019050612cd8600083018561263a565b612ce56020830184612ae5565b9392505050565b6000602082019050612d016000830184612649565b92915050565b60006020820190508181036000830152612d218184612691565b905092915050565b60006060820190508181036000830152612d438186612691565b9050612d526020830185612ae5565b612d5f604083018461263a565b949350505050565b60006020820190508181036000830152612d808161277a565b9050919050565b60006020820190508181036000830152612da08161279d565b9050919050565b60006020820190508181036000830152612dc0816127e3565b9050919050565b60006020820190508181036000830152612de081612806565b9050919050565b60006020820190508181036000830152612e008161286f565b9050919050565b60006020820190508181036000830152612e20816128b5565b9050919050565b60006020820190508181036000830152612e40816128d8565b9050919050565b60006020820190508181036000830152612e60816128fb565b9050919050565b60006020820190508181036000830152612e808161291e565b9050919050565b60006020820190508181036000830152612ea081612941565b9050919050565b60006020820190508181036000830152612ec081612987565b9050919050565b60006020820190508181036000830152612ee0816129aa565b9050919050565b60006020820190508181036000830152612f00816129cd565b9050919050565b60006020820190508181036000830152612f20816129f0565b9050919050565b60006020820190508181036000830152612f4081612a13565b9050919050565b60006020820190508181036000830152612f6081612a59565b9050919050565b60006020820190508181036000830152612f8081612ac2565b9050919050565b6000602082019050612f9c6000830184612ae5565b92915050565b6000612fac612fbd565b9050612fb8828261324d565b919050565b6000604051905090565b600067ffffffffffffffff821115612fe257612fe1613385565b5b612feb826133b4565b9050602081019050919050565b60008190508160005260206000209050919050565b600081519050919050565b600081519050919050565b600082825260208201905092915050565b600082825260208201905092915050565b600081905092915050565b600061305b826131cf565b9150613066836131cf565b9250827fffffffffffffffffffffffffffffffffffffffffffffffffffffffffffffffff0382111561309b5761309a6132f8565b5b828201905092915050565b60006130b1826131cf565b91506130bc836131cf565b9250826130cc576130cb613327565b5b828204905092915050565b60006130e2826131cf565b91506130ed836131cf565b9250817fffffffffffffffffffffffffffffffffffffffffffffffffffffffffffffffff0483118215151615613126576131256132f8565b5b828202905092915050565b600061313c826131cf565b9150613147836131cf565b92508282101561315a576131596132f8565b5b828203905092915050565b6000613170826131af565b9050919050565b60008115159050919050565b60007fffffffff0000000000000000000000000000000000000000000000000000000082169050919050565b600073ffffffffffffffffffffffffffffffffffffffff82169050919050565b6000819050919050565b82818337600083830152505050565b60005b838110156132065780820151818401526020810190506131eb565b83811115613215576000848401525b50505050565b6000600282049050600182168061323357607f821691505b6020821081141561324757613246613356565b5b50919050565b613256826133b4565b810181811067ffffffffffffffff8211171561327557613274613385565b5b80604052505050565b6000613289826131cf565b91507fffffffffffffffffffffffffffffffffffffffffffffffffffffffffffffffff8214156132bc576132bb6132f8565b5b600182019050919050565b60006132d2826131cf565b91506132dd836131cf565b9250826132ed576132ec613327565b5b828206905092915050565b7f4e487b7100000000000000000000000000000000000000000000000000000000600052601160045260246000fd5b7f4e487b7100000000000000000000000000000000000000000000000000000000600052601260045260246000fd5b7f4e487b7100000000000000000000000000000000000000000000000000000000600052602260045260246000fd5b7f4e487b7100000000000000000000000000000000000000000000000000000000600052604160045260246000fd5b6000601f19601f8301169050919050565b7f4552433732313a207472616e7366657220746f206e6f6e20455243373231526560008201527f63656976657220696d706c656d656e7465720000000000000000000000000000602082015250565b7f4552433732313a20746f6b656e20616c7265616479206d696e74656400000000600082015250565b7f54484952445f574f524400000000000000000000000000000000000000000000600082015250565b7f4552433732313a207472616e7366657220746f20746865207a65726f2061646460008201527f7265737300000000000000000000000000000000000000000000000000000000602082015250565b7f4552433732313a20617070726f766520746f2063616c6c657200000000000000600082015250565b7f222c20226465736372697074696f6e223a20224120686967686c79206163636c60008201527f61696d656420636f6c6c656374696f6e206f6620737175617265732e222c202260208201527f696d616765223a2022646174613a696d6167652f7376672b786d6c3b6261736560408201527f36342c0000000000000000000000000000000000000000000000000000000000606082015250565b7f5345434f4e445f574f5244000000000000000000000000000000000000000000600082015250565b7f4552433732313a206f70657261746f7220717565727920666f72206e6f6e657860008201527f697374656e7420746f6b656e0000000000000000000000000000000000000000602082015250565b7f3c2f746578743e3c2f7376673e00000000000000000000000000000000000000600082015250565b7f4552433732313a20617070726f76652063616c6c6572206973206e6f74206f7760008201527f6e6572206e6f7220617070726f76656420666f7220616c6c0000000000000000602082015250565b7f4552433732313a2062616c616e636520717565727920666f7220746865207a6560008201527f726f206164647265737300000000000000000000000000000000000000000000602082015250565b7f4552433732313a206f776e657220717565727920666f72206e6f6e657869737460008201527f656e7420746f6b656e0000000000000000000000000000000000000000000000602082015250565b7f45524337323155524953746f726167653a2055524920736574206f66206e6f6e60008201527f6578697374656e7420746f6b656e000000000000000000000000000000000000602082015250565b7f436f6e74726163742073617973204e4f204d4f5245204e465473206c65667400600082015250565b7f227d000000000000000000000000000000000000000000000000000000000000600082015250565b7f4552433732313a206d696e7420746f20746865207a65726f2061646472657373600082015250565b7f45524337323155524953746f726167653a2055524920717565727920666f722060008201527f6e6f6e6578697374656e7420746f6b656e000000000000000000000000000000602082015250565b7f4552433732313a20617070726f76656420717565727920666f72206e6f6e657860008201527f697374656e7420746f6b656e0000000000000000000000000000000000000000602082015250565b7f4552433732313a207472616e73666572206f6620746f6b656e2074686174206960008201527f73206e6f74206f776e0000000000000000000000000000000000000000000000602082015250565b7f4552433732314d657461646174613a2055524920717565727920666f72206e6f60008201527f6e6578697374656e7420746f6b656e0000000000000000000000000000000000602082015250565b7f7b226e616d65223a202200000000000000000000000000000000000000000000600082015250565b7f4552433732313a20617070726f76616c20746f2063757272656e74206f776e6560008201527f7200000000000000000000000000000000000000000000000000000000000000602082015250565b7f46495253545f574f524400000000000000000000000000000000000000000000600082015250565b7f646174613a6170706c69636174696f6e2f6a736f6e3b6261736536342c000000600082015250565b7f4552433732313a207472616e736665722063616c6c6572206973206e6f74206f60008201527f776e6572206e6f7220617070726f766564000000000000000000000000000000602082015250565b613a2f81613165565b8114613a3a57600080fd5b50565b613a4681613177565b8114613a5157600080fd5b50565b613a5d81613183565b8114613a6857600080fd5b50565b613a74816131cf565b8114613a7f57600080fd5b5056fe416e204e465420772f20494420257320686173206265656e206d696e74656420746f2025734142434445464748494a4b4c4d4e4f505152535455565758595a6162636465666768696a6b6c6d6e6f707172737475767778797a303132333435363738392b2fa26469706673582212206663f00e54ab893acb9e458bdb0c55efd7c14b0e3bb1eb5efc647dc4875c411264736f6c634300080400333c73766720786d6c6e733d27687474703a2f2f7777772e77332e6f72672f323030302f73766727207072657365727665417370656374526174696f3d27784d696e594d696e206d656574272076696577426f783d273020302033353020333530273e3c7374796c653e2e62617365207b2066696c6c3a2077686974653b20666f6e742d66616d696c793a2073657269663b20666f6e742d73697a653a20323470783b207d3c2f7374796c653e3c726563742077696474683d273130302527206865696768743d2731303025272066696c6c3d27626c61636b27202f3e3c7465787420783d273530252720793d273530252720636c6173733d27626173652720646f6d696e616e742d626173656c696e653d276d6964646c652720746578742d616e63686f723d276d6964646c65273e",
  "linkReferences": {},
  "deployedLinkReferences": {}
}